{
	"contracts/01_first_contract.sol": {
		"counter": {
			"abi": [
				{
					"inputs": [],
					"stateMutability": "nonpayable",
					"type": "constructor"
				},
				{
					"inputs": [],
					"name": "getcount",
					"outputs": [
						{
							"internalType": "uint256",
							"name": "",
							"type": "uint256"
						}
					],
					"stateMutability": "view",
					"type": "function"
				},
				{
					"inputs": [],
					"name": "increamentCount",
					"outputs": [],
					"stateMutability": "nonpayable",
					"type": "function"
				}
			],
			"devdoc": {
				"methods": {}
			},
			"evm": {
				"assembly": "    /* \"contracts/01_first_contract.sol\":27:269  contract counter{\r... */\n  mstore(0x40, 0x80)\n    /* \"contracts/01_first_contract.sol\":67:113  constructor() public{\r... */\n  callvalue\n    /* \"--CODEGEN--\":8:17   */\n  dup1\n    /* \"--CODEGEN--\":5:7   */\n  iszero\n  tag_1\n  jumpi\n    /* \"--CODEGEN--\":30:31   */\n  0x00\n    /* \"--CODEGEN--\":27:28   */\n  dup1\n    /* \"--CODEGEN--\":20:32   */\n  revert\n    /* \"--CODEGEN--\":5:7   */\ntag_1:\n    /* \"contracts/01_first_contract.sol\":67:113  constructor() public{\r... */\n  pop\n    /* \"contracts/01_first_contract.sol\":104:105  0 */\n  0x00\n    /* \"contracts/01_first_contract.sol\":98:103  count */\n  dup1\n    /* \"contracts/01_first_contract.sol\":98:105  count=0 */\n  dup2\n  swap1\n  sstore\n  pop\n    /* \"contracts/01_first_contract.sol\":27:269  contract counter{\r... */\n  dataSize(sub_0)\n  dup1\n  dataOffset(sub_0)\n  0x00\n  codecopy\n  0x00\n  return\nstop\n\nsub_0: assembly {\n        /* \"contracts/01_first_contract.sol\":27:269  contract counter{\r... */\n      mstore(0x40, 0x80)\n      callvalue\n        /* \"--CODEGEN--\":8:17   */\n      dup1\n        /* \"--CODEGEN--\":5:7   */\n      iszero\n      tag_1\n      jumpi\n        /* \"--CODEGEN--\":30:31   */\n      0x00\n        /* \"--CODEGEN--\":27:28   */\n      dup1\n        /* \"--CODEGEN--\":20:32   */\n      revert\n        /* \"--CODEGEN--\":5:7   */\n    tag_1:\n        /* \"contracts/01_first_contract.sol\":27:269  contract counter{\r... */\n      pop\n      jumpi(tag_2, lt(calldatasize, 0x04))\n      shr(0xe0, calldataload(0x00))\n      dup1\n      0x146af82b\n      eq\n      tag_3\n      jumpi\n      dup1\n      0x7c85b8f9\n      eq\n      tag_4\n      jumpi\n    tag_2:\n      0x00\n      dup1\n      revert\n        /* \"contracts/01_first_contract.sol\":119:195  function getcount() public view returns(uint){\r... */\n    tag_3:\n      tag_5\n      tag_6\n      jump\t// in\n    tag_5:\n      mload(0x40)\n      dup1\n      dup3\n      dup2\n      mstore\n      0x20\n      add\n      swap2\n      pop\n      pop\n      mload(0x40)\n      dup1\n      swap2\n      sub\n      swap1\n      return\n        /* \"contracts/01_first_contract.sol\":201:266  function increamentCount() public{\r... */\n    tag_4:\n      tag_7\n      tag_8\n      jump\t// in\n    tag_7:\n      stop\n        /* \"contracts/01_first_contract.sol\":119:195  function getcount() public view returns(uint){\r... */\n    tag_6:\n        /* \"contracts/01_first_contract.sol\":159:163  uint */\n      0x00\n        /* \"contracts/01_first_contract.sol\":182:187  count */\n      dup1\n      sload\n        /* \"contracts/01_first_contract.sol\":175:187  return count */\n      swap1\n      pop\n        /* \"contracts/01_first_contract.sol\":119:195  function getcount() public view returns(uint){\r... */\n      swap1\n      jump\t// out\n        /* \"contracts/01_first_contract.sol\":201:266  function increamentCount() public{\r... */\n    tag_8:\n        /* \"contracts/01_first_contract.sol\":257:258  1 */\n      0x01\n        /* \"contracts/01_first_contract.sol\":251:256  count */\n      sload(0x00)\n        /* \"contracts/01_first_contract.sol\":251:258  count+1 */\n      add\n        /* \"contracts/01_first_contract.sol\":245:250  count */\n      0x00\n        /* \"contracts/01_first_contract.sol\":245:258  count=count+1 */\n      dup2\n      swap1\n      sstore\n      pop\n        /* \"contracts/01_first_contract.sol\":201:266  function increamentCount() public{\r... */\n      jump\t// out\n\n    auxdata: 0xa2646970667358221220d21063425920ac1fe8b932de27167acdaa5193888049e1a31336f5b89c62dc7564736f6c63430006000033\n}\n",
				"bytecode": {
					"linkReferences": {},
					"object": "6080604052348015600f57600080fd5b506000808190555060a8806100256000396000f3fe6080604052348015600f57600080fd5b506004361060325760003560e01c8063146af82b1460375780637c85b8f9146053575b600080fd5b603d605b565b6040518082815260200191505060405180910390f35b60596064565b005b60008054905090565b60016000540160008190555056fea2646970667358221220d21063425920ac1fe8b932de27167acdaa5193888049e1a31336f5b89c62dc7564736f6c63430006000033",
					"opcodes": "PUSH1 0x80 PUSH1 0x40 MSTORE CALLVALUE DUP1 ISZERO PUSH1 0xF JUMPI PUSH1 0x0 DUP1 REVERT JUMPDEST POP PUSH1 0x0 DUP1 DUP2 SWAP1 SSTORE POP PUSH1 0xA8 DUP1 PUSH2 0x25 PUSH1 0x0 CODECOPY PUSH1 0x0 RETURN INVALID PUSH1 0x80 PUSH1 0x40 MSTORE CALLVALUE DUP1 ISZERO PUSH1 0xF JUMPI PUSH1 0x0 DUP1 REVERT JUMPDEST POP PUSH1 0x4 CALLDATASIZE LT PUSH1 0x32 JUMPI PUSH1 0x0 CALLDATALOAD PUSH1 0xE0 SHR DUP1 PUSH4 0x146AF82B EQ PUSH1 0x37 JUMPI DUP1 PUSH4 0x7C85B8F9 EQ PUSH1 0x53 JUMPI JUMPDEST PUSH1 0x0 DUP1 REVERT JUMPDEST PUSH1 0x3D PUSH1 0x5B JUMP JUMPDEST PUSH1 0x40 MLOAD DUP1 DUP3 DUP2 MSTORE PUSH1 0x20 ADD SWAP2 POP POP PUSH1 0x40 MLOAD DUP1 SWAP2 SUB SWAP1 RETURN JUMPDEST PUSH1 0x59 PUSH1 0x64 JUMP JUMPDEST STOP JUMPDEST PUSH1 0x0 DUP1 SLOAD SWAP1 POP SWAP1 JUMP JUMPDEST PUSH1 0x1 PUSH1 0x0 SLOAD ADD PUSH1 0x0 DUP2 SWAP1 SSTORE POP JUMP INVALID LOG2 PUSH5 0x6970667358 0x22 SLT KECCAK256 0xD2 LT PUSH4 0x425920AC 0x1F 0xE8 0xB9 ORIGIN 0xDE 0x27 AND PUSH27 0xCDAA5193888049E1A31336F5B89C62DC7564736F6C634300060000 CALLER "
				},
				"gasEstimates": {
					"creation": {
						"codeDepositCost": "33600",
						"executionCost": "5101",
						"totalCost": "38701"
					},
					"external": {
						"getcount()": "991",
						"increamentCount()": "20964"
					}
				},
				"methodIdentifiers": {
					"getcount()": "146af82b",
					"increamentCount()": "7c85b8f9"
				}
			},
			"storageLayout": {
				"storage": [
					{
						"astId": 3,
						"contract": "contracts/01_first_contract.sol:counter",
						"label": "count",
						"offset": 0,
						"slot": "0",
						"type": "t_uint256"
					}
				],
				"types": {
					"t_uint256": {
						"encoding": "inplace",
						"label": "uint256",
						"numberOfBytes": "32"
					}
				}
			},
			"userdoc": {
				"methods": {}
			}
		}
	}
}