{
	"contracts/01_first_contract.sol": {
		"counter": {
			"abi": [
				{
					"inputs": [],
					"name": "count",
					"outputs": [
						{
							"internalType": "uint256",
							"name": "",
							"type": "uint256"
						}
					],
					"stateMutability": "view",
					"type": "function"
				},
				{
					"inputs": [],
					"name": "increamentCount",
					"outputs": [],
					"stateMutability": "nonpayable",
					"type": "function"
				}
			],
			"devdoc": {
				"kind": "dev",
				"methods": {},
				"version": 1
			},
			"evm": {
				"assembly": "    /* \"contracts/01_first_contract.sol\":27:144  contract counter{\r... */\n  mstore(0x40, 0x80)\n    /* \"contracts/01_first_contract.sol\":68:69  0 */\n  0x00\n    /* \"contracts/01_first_contract.sol\":50:69  uint public count=0 */\n  dup1\n  sstore\n    /* \"contracts/01_first_contract.sol\":27:144  contract counter{\r... */\n  callvalue\n  dup1\n  iszero\n  tag_1\n  jumpi\n  0x00\n  dup1\n  revert\ntag_1:\n  pop\n  dataSize(sub_0)\n  dup1\n  dataOffset(sub_0)\n  0x00\n  codecopy\n  0x00\n  return\nstop\n\nsub_0: assembly {\n        /* \"contracts/01_first_contract.sol\":27:144  contract counter{\r... */\n      mstore(0x40, 0x80)\n      callvalue\n      dup1\n      iszero\n      tag_1\n      jumpi\n      0x00\n      dup1\n      revert\n    tag_1:\n      pop\n      jumpi(tag_2, lt(calldatasize, 0x04))\n      shr(0xe0, calldataload(0x00))\n      dup1\n      0x06661abd\n      eq\n      tag_3\n      jumpi\n      dup1\n      0x7c85b8f9\n      eq\n      tag_4\n      jumpi\n    tag_2:\n      0x00\n      dup1\n      revert\n        /* \"contracts/01_first_contract.sol\":50:69  uint public count=0 */\n    tag_3:\n      tag_5\n      tag_6\n      jump\t// in\n    tag_5:\n      mload(0x40)\n      dup1\n      dup3\n      dup2\n      mstore\n      0x20\n      add\n      swap2\n      pop\n      pop\n      mload(0x40)\n      dup1\n      swap2\n      sub\n      swap1\n      return\n        /* \"contracts/01_first_contract.sol\":76:141  function increamentCount() public{\r... */\n    tag_4:\n      tag_7\n      tag_8\n      jump\t// in\n    tag_7:\n      stop\n        /* \"contracts/01_first_contract.sol\":50:69  uint public count=0 */\n    tag_6:\n      sload(0x00)\n      dup2\n      jump\t// out\n        /* \"contracts/01_first_contract.sol\":76:141  function increamentCount() public{\r... */\n    tag_8:\n        /* \"contracts/01_first_contract.sol\":132:133  1 */\n      0x01\n        /* \"contracts/01_first_contract.sol\":126:131  count */\n      sload(0x00)\n        /* \"contracts/01_first_contract.sol\":126:133  count+1 */\n      add\n        /* \"contracts/01_first_contract.sol\":120:125  count */\n      0x00\n        /* \"contracts/01_first_contract.sol\":120:133  count=count+1 */\n      dup2\n      swap1\n      sstore\n      pop\n        /* \"contracts/01_first_contract.sol\":76:141  function increamentCount() public{\r... */\n      jump\t// out\n\n    auxdata: 0xa2646970667358221220356f24f7eae3b285a3310809e79392d123d1a42f9d1d5a9489033c94b492317664736f6c634300060c0033\n}\n",
				"bytecode": {
					"linkReferences": {},
					"object": "608060405260008055348015601357600080fd5b5060a5806100226000396000f3fe6080604052348015600f57600080fd5b506004361060325760003560e01c806306661abd1460375780637c85b8f9146053575b600080fd5b603d605b565b6040518082815260200191505060405180910390f35b60596061565b005b60005481565b60016000540160008190555056fea2646970667358221220356f24f7eae3b285a3310809e79392d123d1a42f9d1d5a9489033c94b492317664736f6c634300060c0033",
					"opcodes": "PUSH1 0x80 PUSH1 0x40 MSTORE PUSH1 0x0 DUP1 SSTORE CALLVALUE DUP1 ISZERO PUSH1 0x13 JUMPI PUSH1 0x0 DUP1 REVERT JUMPDEST POP PUSH1 0xA5 DUP1 PUSH2 0x22 PUSH1 0x0 CODECOPY PUSH1 0x0 RETURN INVALID PUSH1 0x80 PUSH1 0x40 MSTORE CALLVALUE DUP1 ISZERO PUSH1 0xF JUMPI PUSH1 0x0 DUP1 REVERT JUMPDEST POP PUSH1 0x4 CALLDATASIZE LT PUSH1 0x32 JUMPI PUSH1 0x0 CALLDATALOAD PUSH1 0xE0 SHR DUP1 PUSH4 0x6661ABD EQ PUSH1 0x37 JUMPI DUP1 PUSH4 0x7C85B8F9 EQ PUSH1 0x53 JUMPI JUMPDEST PUSH1 0x0 DUP1 REVERT JUMPDEST PUSH1 0x3D PUSH1 0x5B JUMP JUMPDEST PUSH1 0x40 MLOAD DUP1 DUP3 DUP2 MSTORE PUSH1 0x20 ADD SWAP2 POP POP PUSH1 0x40 MLOAD DUP1 SWAP2 SUB SWAP1 RETURN JUMPDEST PUSH1 0x59 PUSH1 0x61 JUMP JUMPDEST STOP JUMPDEST PUSH1 0x0 SLOAD DUP2 JUMP JUMPDEST PUSH1 0x1 PUSH1 0x0 SLOAD ADD PUSH1 0x0 DUP2 SWAP1 SSTORE POP JUMP INVALID LOG2 PUSH5 0x6970667358 0x22 SLT KECCAK256 CALLDATALOAD PUSH16 0x24F7EAE3B285A3310809E79392D123D1 LOG4 0x2F SWAP14 SAR GAS SWAP5 DUP10 SUB EXTCODECOPY SWAP5 0xB4 SWAP3 BALANCE PUSH23 0x64736F6C634300060C0033000000000000000000000000 "
				},
				"gasEstimates": {
					"creation": {
						"codeDepositCost": "33000",
						"executionCost": "5093",
						"totalCost": "38093"
					},
					"external": {
						"count()": "983",
						"increamentCount()": "20964"
					}
				},
				"methodIdentifiers": {
					"count()": "06661abd",
					"increamentCount()": "7c85b8f9"
				}
			},
			"storageLayout": {
				"storage": [
					{
						"astId": 4,
						"contract": "contracts/01_first_contract.sol:counter",
						"label": "count",
						"offset": 0,
						"slot": "0",
						"type": "t_uint256"
					}
				],
				"types": {
					"t_uint256": {
						"encoding": "inplace",
						"label": "uint256",
						"numberOfBytes": "32"
					}
				}
			},
			"userdoc": {
				"kind": "user",
				"methods": {},
				"version": 1
			}
		}
	}
}